{
  "contractName": "TimberSupplyChain",
  "abi": [
    {
      "inputs": [],
      "payable": false,
      "stateMutability": "nonpayable",
      "type": "constructor"
    },
    {
      "anonymous": false,
      "inputs": [
        {
          "indexed": false,
          "internalType": "uint256",
          "name": "id",
          "type": "uint256"
        },
        {
          "indexed": false,
          "internalType": "string",
          "name": "batchId",
          "type": "string"
        },
        {
          "indexed": false,
          "internalType": "enum TimberSupplyChain.SupplyChainStage",
          "name": "stage",
          "type": "uint8"
        },
        {
          "indexed": false,
          "internalType": "uint256",
          "name": "timestamp",
          "type": "uint256"
        },
        {
          "indexed": false,
          "internalType": "string",
          "name": "location",
          "type": "string"
        }
      ],
      "name": "BatchCreated",
      "type": "event"
    },
    {
      "anonymous": false,
      "inputs": [
        {
          "indexed": false,
          "internalType": "uint256",
          "name": "id",
          "type": "uint256"
        },
        {
          "indexed": false,
          "internalType": "enum TimberSupplyChain.SupplyChainStage",
          "name": "newStage",
          "type": "uint8"
        },
        {
          "indexed": false,
          "internalType": "uint256",
          "name": "timestamp",
          "type": "uint256"
        },
        {
          "indexed": false,
          "internalType": "string",
          "name": "location",
          "type": "string"
        }
      ],
      "name": "BatchUpdated",
      "type": "event"
    },
    {
      "constant": true,
      "inputs": [],
      "name": "batchCount",
      "outputs": [
        {
          "internalType": "uint256",
          "name": "",
          "type": "uint256"
        }
      ],
      "payable": false,
      "stateMutability": "view",
      "type": "function"
    },
    {
      "constant": true,
      "inputs": [
        {
          "internalType": "uint256",
          "name": "",
          "type": "uint256"
        }
      ],
      "name": "batches",
      "outputs": [
        {
          "internalType": "uint256",
          "name": "id",
          "type": "uint256"
        },
        {
          "internalType": "string",
          "name": "batchId",
          "type": "string"
        },
        {
          "internalType": "enum TimberSupplyChain.SupplyChainStage",
          "name": "stage",
          "type": "uint8"
        },
        {
          "internalType": "uint256",
          "name": "timestamp",
          "type": "uint256"
        },
        {
          "internalType": "string",
          "name": "location",
          "type": "string"
        }
      ],
      "payable": false,
      "stateMutability": "view",
      "type": "function"
    },
    {
      "constant": false,
      "inputs": [
        {
          "internalType": "string",
          "name": "_batchId",
          "type": "string"
        },
        {
          "internalType": "enum TimberSupplyChain.SupplyChainStage",
          "name": "_initialStage",
          "type": "uint8"
        },
        {
          "internalType": "string",
          "name": "_initialLocation",
          "type": "string"
        }
      ],
      "name": "addBatch",
      "outputs": [],
      "payable": false,
      "stateMutability": "nonpayable",
      "type": "function"
    },
    {
      "constant": false,
      "inputs": [
        {
          "internalType": "uint256",
          "name": "_id",
          "type": "uint256"
        },
        {
          "internalType": "enum TimberSupplyChain.SupplyChainStage",
          "name": "_newStage",
          "type": "uint8"
        },
        {
          "internalType": "string",
          "name": "_location",
          "type": "string"
        }
      ],
      "name": "updateBatchStage",
      "outputs": [],
      "payable": false,
      "stateMutability": "nonpayable",
      "type": "function"
    },
    {
      "constant": true,
      "inputs": [],
      "name": "getBatchCount",
      "outputs": [
        {
          "internalType": "uint256",
          "name": "",
          "type": "uint256"
        }
      ],
      "payable": false,
      "stateMutability": "view",
      "type": "function"
    }
  ],
  "bytecode": "0x60806040526000805534801561001457600080fd5b506100726040518060400160405280600c81526020016b092dcd2e8d2c2d884c2e8c6d60a31b81525060006040518060400160405280600f81526020016e24b734ba34b0b62637b1b0ba34b7b760891b81525061007760201b60201c565b6102f6565b60008054600101908190556040805160a0810182529182526020820185905281018360038111156100a457fe5b815242602080830191909152604091820184905260008054815260018083529290208351815583820151805191936100e2939085019291019061025b565b50604082015160028201805460ff1916600183600381111561010057fe5b0217905550606082015160038201556080820151805161012a91600484019160209091019061025b565b509050507f1dbeb997f74d97630baf287a1df6fb7637eae3669819c85c776d45ccddfbe65860005484844285604051808681526020018060200185600381111561017057fe5b60ff16815260200184815260200180602001838103835287818151815260200191508051906020019080838360005b838110156101b757818101518382015260200161019f565b50505050905090810190601f1680156101e45780820380516001836020036101000a031916815260200191505b50838103825284518152845160209182019186019080838360005b838110156102175781810151838201526020016101ff565b50505050905090810190601f1680156102445780820380516001836020036101000a031916815260200191505b5097505050505050505060405180910390a1505050565b828054600181600116156101000203166002900490600052602060002090601f016020900481019282601f1061029c57805160ff19168380011785556102c9565b828001600101855582156102c9579182015b828111156102c95782518255916020019190600101906102ae565b506102d59291506102d9565b5090565b6102f391905b808211156102d557600081556001016102df565b90565b6108f3806103056000396000f3fe608060405234801561001057600080fd5b50600436106100575760003560e01c806306f130561461005c578063a8fabfa514610076578063b32c4d8d1461007e578063c2c0a7371461019c578063ce11af9714610253575b600080fd5b61006461038b565b60408051918252519081900360200190f35b610064610391565b61009b6004803603602081101561009457600080fd5b5035610398565b60405180868152602001806020018560038111156100b557fe5b60ff16815260200184815260200180602001838103835287818151815260200191508051906020019080838360005b838110156100fc5781810151838201526020016100e4565b50505050905090810190601f1680156101295780820380516001836020036101000a031916815260200191505b50838103825284518152845160209182019186019080838360005b8381101561015c578181015183820152602001610144565b50505050905090810190601f1680156101895780820380516001836020036101000a031916815260200191505b5097505050505050505060405180910390f35b610251600480360360608110156101b257600080fd5b81359160ff602082013516918101906060810160408201356401000000008111156101dc57600080fd5b8201836020820111156101ee57600080fd5b8035906020019184600183028401116401000000008311171561021057600080fd5b91908080601f0160208091040260200160405190810160405280939291908181526020018383808284376000920191909152509295506104e2945050505050565b005b6102516004803603606081101561026957600080fd5b81019060208101813564010000000081111561028457600080fd5b82018360208201111561029657600080fd5b803590602001918460018302840111640100000000831117156102b857600080fd5b91908080601f016020809104026020016040519081016040528093929190818152602001838380828437600092019190915250929560ff85351695909490935060408101925060200135905064010000000081111561031657600080fd5b82018360208201111561032857600080fd5b8035906020019184600183028401116401000000008311171561034a57600080fd5b91908080601f016020809104026020016040519081016040528093929190818152602001838380828437600092019190915250929550610642945050505050565b60005481565b6000545b90565b600160208181526000928352604092839020805481840180548651600296821615610100026000190190911695909504601f810185900485028601850190965285855290949193929091908301828280156104345780601f1061040957610100808354040283529160200191610434565b820191906000526020600020905b81548152906001019060200180831161041757829003601f168201915b5050505060028381015460038501546004860180546040805160206101006001851615026000190190931696909604601f8101839004830287018301909152808652969760ff909416969295509293929091908301828280156104d85780601f106104ad576101008083540402835291602001916104d8565b820191906000526020600020905b8154815290600101906020018083116104bb57829003601f168201915b5050505050905085565b600054831115610530576040805162461bcd60e51b815260206004820152601460248201527310985d18da08191bd95cc81b9bdd08195e1a5cdd60621b604482015290519081900360640190fd5b60008381526001602081905260409091206002810180549192859260ff19169083600381111561055c57fe5b0217905550426003820155815161057c9060048301906020850190610826565b507f1413146ea3eb4bc9c557b2592ac0188eda6d853ee81ac5aca62bfa88ed3ed01b84844285604051808581526020018460038111156105b857fe5b60ff16815260200183815260200180602001828103825283818151815260200191508051906020019080838360005b838110156105ff5781810151838201526020016105e7565b50505050905090810190601f16801561062c5780820380516001836020036101000a031916815260200191505b509550505050505060405180910390a150505050565b60008054600101908190556040805160a08101825291825260208201859052810183600381111561066f57fe5b815242602080830191909152604091820184905260008054815260018083529290208351815583820151805191936106ad9390850192910190610826565b50604082015160028201805460ff191660018360038111156106cb57fe5b021790555060608201516003820155608082015180516106f5916004840191602090910190610826565b509050507f1dbeb997f74d97630baf287a1df6fb7637eae3669819c85c776d45ccddfbe65860005484844285604051808681526020018060200185600381111561073b57fe5b60ff16815260200184815260200180602001838103835287818151815260200191508051906020019080838360005b8381101561078257818101518382015260200161076a565b50505050905090810190601f1680156107af5780820380516001836020036101000a031916815260200191505b50838103825284518152845160209182019186019080838360005b838110156107e25781810151838201526020016107ca565b50505050905090810190601f16801561080f5780820380516001836020036101000a031916815260200191505b5097505050505050505060405180910390a1505050565b828054600181600116156101000203166002900490600052602060002090601f016020900481019282601f1061086757805160ff1916838001178555610894565b82800160010185558215610894579182015b82811115610894578251825591602001919060010190610879565b506108a09291506108a4565b5090565b61039591905b808211156108a057600081556001016108aa56fea265627a7a72315820debfa74c049c9be112552b347c5542d3f11413ba703de7bb47c674046550178864736f6c63430005100032",
  "source": "// TimberSupplyChains.sol\n\npragma solidity ^0.5.16;\n\n\ncontract TimberSupplyChain {\n\n    uint public batchCount = 0;\n\n    enum SupplyChainStage { Harvest, Transport, Processing, Distribution }\n\n    struct TimberBatch {\n        uint id;\n        string batchId;\n        SupplyChainStage stage;\n        uint timestamp;\n        string location;\n    }\n\n    mapping(uint => TimberBatch) public batches;\n\n    event BatchCreated(\n        uint id,\n        string batchId,\n        SupplyChainStage stage,\n        uint timestamp,\n        string location\n    );\n\n    event BatchUpdated(\n        uint id,\n        SupplyChainStage newStage,\n        uint timestamp,\n        string location\n    );\n\n    constructor() public {\n        addBatch(\"InitialBatch\", SupplyChainStage.Harvest, \"InitialLocation\");\n    }\n\n    function addBatch(string memory _batchId, SupplyChainStage _initialStage, string memory _initialLocation) public {\n        batchCount++;\n        batches[batchCount] = TimberBatch(batchCount, _batchId, _initialStage, block.timestamp, _initialLocation);\n        emit BatchCreated(batchCount, _batchId, _initialStage, block.timestamp, _initialLocation);\n    }\n\n    function updateBatchStage(uint _id, SupplyChainStage _newStage, string memory _location) public {\n        require(_id <= batchCount, \"Batch does not exist\");\n        TimberBatch storage batch = batches[_id];\n        batch.stage = _newStage;\n        batch.timestamp = block.timestamp;\n        batch.location = _location;\n        emit BatchUpdated(_id, _newStage, block.timestamp, _location);\n    }\n\n    // Function to get the total batch count\n    function getBatchCount() public view returns (uint) {\n        return batchCount;\n    }\n\n    \n}",
  "sourcePath": "/Users/vrushalilad/Documents/BlockchainProject/contracts/TimberSupplyChain.sol",
  "compiler": {
    "name": "solc",
    "version": "0.5.16+commit.9c3226ce.Emscripten.clang"
  },
  "schemaVersion": "3.4.16",
  "updatedAt": "2023-10-10T21:07:43.697Z",
  "networkType": "ethereum",
  "devdoc": {
    "methods": {}
  },
  "userdoc": {
    "methods": {}
  }
}